{"abi":[{"type":"constructor","inputs":[{"name":"_interval","type":"uint256","internalType":"uint256"}],"stateMutability":"nonpayable"},{"type":"function","name":"checkUpkeep","inputs":[{"name":"","type":"bytes","internalType":"bytes"}],"outputs":[{"name":"","type":"bool","internalType":"bool"},{"name":"","type":"bytes","internalType":"bytes"}],"stateMutability":"view"},{"type":"function","name":"performUpkeep","inputs":[{"name":"performData","type":"bytes","internalType":"bytes"}],"outputs":[],"stateMutability":"nonpayable"},{"type":"event","name":"depositintervalhascome","inputs":[],"anonymous":false}],"bytecode":{"object":"0x6080604052348015600e575f5ffd5b506040516103a43803806103a48339818101604052810190602e91906072565b805f8190555042600181905550506098565b5f5ffd5b5f819050919050565b6054816044565b8114605d575f5ffd5b50565b5f81519050606c81604d565b92915050565b5f6020828403121560845760836040565b5b5f608f848285016060565b91505092915050565b6102ff806100a55f395ff3fe608060405234801561000f575f5ffd5b5060043610610034575f3560e01c80634585e33b146100385780636e04ff0d14610054575b5f5ffd5b610052600480360381019061004d919061015d565b610085565b005b61006e6004803603810190610069919061015d565b6100bc565b60405161007c929190610232565b60405180910390f35b426001819055507fc36009840061216230f5ad34372b1b61db814e032e43a1b97e33f405d41d9e0d60405160405180910390a15050565b5f60605f5f54600154426100d09190610296565b1190505f60405180602001604052805f815250905081819350935050509250929050565b5f5ffd5b5f5ffd5b5f5ffd5b5f5ffd5b5f5ffd5b5f5f83601f84011261011d5761011c6100fc565b5b8235905067ffffffffffffffff81111561013a57610139610100565b5b60208301915083600182028301111561015657610155610104565b5b9250929050565b5f5f60208385031215610173576101726100f4565b5b5f83013567ffffffffffffffff8111156101905761018f6100f8565b5b61019c85828601610108565b92509250509250929050565b5f8115159050919050565b6101bc816101a8565b82525050565b5f81519050919050565b5f82825260208201905092915050565b8281835e5f83830152505050565b5f601f19601f8301169050919050565b5f610204826101c2565b61020e81856101cc565b935061021e8185602086016101dc565b610227816101ea565b840191505092915050565b5f6040820190506102455f8301856101b3565b818103602083015261025781846101fa565b90509392505050565b5f819050919050565b7f4e487b71000000000000000000000000000000000000000000000000000000005f52601160045260245ffd5b5f6102a082610260565b91506102ab83610260565b92508282039050818111156102c3576102c2610269565b5b9291505056fea2646970667358221220ef41315855c057fc09124a5c80d343a4f3169b75cdf12e600f7ea5f386152c3c64736f6c634300081c0033","linkReferences":{}},"methodIdentifiers":{"checkUpkeep(bytes)":"6e04ff0d","performUpkeep(bytes)":"4585e33b"},"id":1}